:100000000C943B000C9458000C9458000C9458002D
:100010000C9458000C9458000C9458000C94580000
:100020000C9458000C9458000C9458000C945800F0
:100030000C9458000C9458000C9458000C945800E0
:100040000C9458000C9458000C9407030C9458001E
:100050000C9458000C9458000C9458000C945800C0
:100060000C9458000C94580008020F02160220024B
:100070002A0234023E0211241FBECFEFD8E0DEBFB9
:10008000CDBF12E0A0E0B1E0E6EEFCE002C00590DA
:100090000D92AA31B107D9F722E0AAE1B2E001C07E
:1000A0001D92A83BB207E1F70E94B1010C947106C2
:1000B0000C94000087B1806387B98AB18C6F8AB9CC
:1000C00088B18F7C88B98BB183708BB920E040E018
:1000D00060E086E50E94F00180E895E20E945C0203
:1000E00008951F93CF93DF9380911E0290E0909329
:1000F000B5028093B40280911F0290E09093B70202
:100100008093B60281E091E00E948A028091B7025A
:100110008F938091B6028F9384E091E09F938F93A9
:100120001F9210E11F93C4EAD2E0DF93CF930E94A5
:100130007903CE010E948A028FE99FE00197F1F7CF
:1001400000C000008091B5028F938091B4028F931C
:100150008EE091E09F938F931F921F93DF93CF9335
:100160000E947903CE010E948A028DB79EB7409605
:100170000FB6F8949EBF0FBE8DBFDF91CF911F9138
:10018000089585B18B7F85B983E60E9455020E9450
:10019000570280931F028FE39CE90197F1F700C09B
:1001A000000084E60E9455020E94570280931E02BE
:1001B0008FE39CE90197F1F700C0000085B18460EE
:1001C00085B9089580FF04C098B1906198B903C0C3
:1001D00098B19F7E98B981FF04C098B1906298B998
:1001E00003C098B19F7D98B982FF04C09BB1946011
:1001F0009BB903C09BB19B7F9BB983FF04C09BB19C
:1002000098609BB903C09BB1977F9BB984FF04C0E2
:100210009BB190619BB903C09BB19F7E9BB985FF49
:1002200004C09BB190629BB903C09BB19F7D9BB9F9
:1002300086FF04C09BB190649BB903C09BB19F7BB8
:100240009BB9882324F48BB180688BB908958BB156
:100250008F778BB9089581E091E00E948A0288E14E
:1002600091E00E948A0264E080EA92E00E94DF024C
:100270008AE00E9483028DE00E9483028FE391E076
:100280000E948A0280EA92E00E948A028AE00E942A
:10029000830280EA92E00E94530390931B028093B2
:1002A0001A028AE00E9483028DE00E94830281E5A7
:1002B00091E00E948A0280911A020E9497028AE0CD
:1002C0000E9483028DE00E94830280911A02282FEF
:1002D00030911B022F3F310509F018F40E94E20013
:1002E00008958EE691E00E948A0208950E94D50248
:1002F000892BB1F10E94C0028D36B1F40E947100C9
:100300002FEF81EE94E0215080409040E1F700C053
:1003100000008CEA91E00E948A0281ED91E00E9447
:100320008A020E94760108958E36B1F40E942B0154
:100330002FEF81EE94E0215080409040E1F700C023
:1003400000008CEA91E00E948A0281ED91E00E9417
:100350008A020E947601089581EF91E00E948A024C
:1003600008950E945A00789480910001813009F527
:100370002FEF81EE94E0215080409040E1F700C0E3
:1003800000008CEA91E00E948A0281ED91E00E94D7
:100390008A020E94C1002FEF85EA9EE02150804032
:1003A0009040E1F700C000000E9476011092000129
:1003B0000BC02FEF89E698E1215080409040E1F793
:1003C00000C000000E9476010E94C1002FEF85EA64
:1003D0009EE0215080409040E1F700C00000C4CF73
:1003E000E82F84FF52C084B18C6284B984B18F7EBF
:1003F00084B98CB580618CBDE7708E2F90E087301A
:10040000910508F04BC0FC01EC5CFF4F0C944D03D0
:100410008CB58C7F8CBD8DB581608DBD3FC08CB59A
:100420008C7F8CBD8DB58E7F8DBD38C08CB58160C5
:100430008CBD8CB58D7F8CBD8DB581608DBD2EC082
:100440008CB581608CBD8CB58D7F8CBD8DB58E7F5C
:100450008DBD24C08CB58E7F8CBD8CB582608CBD6B
:100460008DB581608DBD1AC08CB58E7F8CBD8CB56D
:1004700082608CBD8DB58E7F8DBD10C08CB58360C4
:100480008CBD8DB58E7F8DBD09C084B1806184B96E
:1004900084B1837D84B98CB58F7E8CBD8CB5462BA1
:1004A000242B282B20642CBD08958EBD08950DB4F7
:1004B00007FEFDCF8EB50895A0E0B0E0880F991F2C
:1004C000AA1FBB1F880F991FAA1FBB1F9C01AD014C
:1004D000220F331F441F551F220F331F441F551F68
:1004E00060E074E284EF90E00E942B032150310918
:1004F0003093C5002093C40088E98093C10086E052
:100500008093C20008959091C00095FFFCCF809326
:10051000C6000895CF93DF93EC0103C021960E949B
:10052000830288818111FACFDF91CF9108950F93D3
:100530001F93CF93DF9300D000D0CDB7DEB71F92CB
:100540008F9387E192E09F938F931F9284E08F9324
:100550008E010F5F1F4F1F930F930E947903C801F5
:100560000E948A020FB6F894DEBF0FBECDBF0F9077
:100570000F900F900F90DF91CF911F910F910895E1
:1005800090911D0280911C02981769F0E0911C0265
:10059000F0E0E05EFD4F808190911C029F5F9F77AD
:1005A00090931C02089580E0089520911D0290917F
:1005B0001C0281E0291301C080E090E008950F93B0
:1005C0001F93CF93DF938C01D62FC0E00FC00E9402
:1005D000D502892B59F00E94C0028A3079F08D3003
:1005E00069F0F801EC0FF11D8083CF5F2C2F30E014
:1005F0008D2F90E00197281739074CF3F801EC0F85
:10060000F11D1082DF91CF911F910F9108951F92DC
:100610000F920FB60F9211248F93EF93FF93E091F7
:100620001D02F0E08091C600E05EFD4F8083809166
:100630001D028F5F8F7780931D02E0911D02F0E015
:10064000E05EFD4F1082FF91EF918F910F900FBEF2
:100650000F901F901895A1E21A2EAA1BBB1BFD013B
:100660000DC0AA1FBB1FEE1FFF1FA217B307E40791
:10067000F50720F0A21BB30BE40BF50B661F771FE9
:10068000881F991F1A9469F76095709580959095C9
:100690009B01AC01BD01CF010895EE0FFF1F059036
:1006A000F491E02D0994FC0188279927E894219181
:1006B0002032E9F3293010F02E30C8F32B3241F00C
:1006C0002D3239F4689404C00E947103820F911D89
:1006D000219120532A30C0F31EF4909581959F4FAD
:1006E00008957AE0979F902D879F802D910D11247A
:1006F0000895AEE0B0E0EFE7F3E00C9448060D8912
:100700001E898F89988D26E02C831A83098397FF91
:1007100002C080E090E801979E838D83AE01455E24
:100720005F4F698D7A8DCE0101960E94A9034D819C
:100730005E8157FD0AC02F813885421753070CF49C
:100740009A01F801E20FF31F10822E96E4E00C9458
:100750006406ABE0B0E0EFEAF3E00C943A066C011B
:100760007B018A01FC0117821682838181FFCCC143
:10077000CE0101963C01F6019381F70193FD85912D
:1007800093FF81917F01882309F4BAC1853239F43E
:1007900093FD859193FF81917F01853229F4B60104
:1007A00090E00E94A005E7CF912C212C312CFFE195
:1007B000F315D8F08B3279F038F4803279F0833247
:1007C000A1F4232D20611DC08D3261F0803369F4C6
:1007D000232D216016C0832D8260382EE32DE46026
:1007E0003E2E2AC0F32DF8601DC037FC2DC020ED31
:1007F000280F2A3040F08E32B9F436FC81C1232D07
:100800002064322E19C036FE06C08AE0989E200D64
:100810001124922E11C0EAE02E9E200D1124222ECA
:10082000F32DF0623F2E08C08C3621F4832D8068B2
:10083000382E02C0883641F4F70193FD859193FF6D
:1008400081917F018111B3CF982F9F7D9554933073
:1008500028F40C5F1F4F9FE399830DC0833631F05E
:10086000833771F0833509F059C021C0F8018081C8
:1008700089830E5F1F4F88248394912C530113C0EA
:100880002801F2E04F0E511CF801A080B18036FE25
:1008900003C0692D70E002C06FEF7FEFC5010E94B9
:1008A00095054C018201F32DFF773F2E16C02801DC
:1008B00022E0420E511CF801A080B18036FE03C038
:1008C000692D70E002C06FEF7FEFC5010E948A05BD
:1008D0004C01F32DF0683F2E820133FC1BC0822DAA
:1008E00090E088169906B0F4B60180E290E00E948C
:1008F000A0052A94F4CFF50137FC859137FE81914C
:100900005F01B60190E00E94A00521102A9421E029
:10091000821A91088114910471F7E8C0843611F0AD
:10092000893641F5F80137FE07C060817181828107
:1009300093810C5F1F4F08C060817181072E000CEE
:10094000880B990B0E5F1F4FF32DFF763F2E97FFFD
:1009500009C090958095709561957F4F8F4F9F4FFF
:10096000F0683F2E2AE030E0A3010E94DC05882ECB
:10097000861845C0853731F4232D2F7EB22E2AE00C
:1009800030E025C0932D997FB92E8F36C1F018F431
:10099000883579F0B5C0803719F0883721F0B0C0BC
:1009A000E92FE061BE2EB4FE0DC0FB2DF460BF2E1A
:1009B00009C034FE0AC0292F2660B22E06C028E0E6
:1009C00030E005C020E130E002C020E132E0F80173
:1009D000B7FE07C060817181828193810C5F1F4FD8
:1009E00006C06081718180E090E00E5F1F4FA3011F
:1009F0000E94DC05882E8618FB2DFF773F2E36FEE1
:100A00000DC0232D2E7FA22E891458F434FE0BC066
:100A100032FC09C0832D8E7EA82E05C0B82CA32CD5
:100A200003C0B82C01C0B92CA4FE0FC0FE01E80D14
:100A3000F11D8081803321F49A2D997EA92E09C061
:100A4000A2FE06C0B394B39404C08A2D867809F040
:100A5000B394A3FC11C0A0FE06C0B21488F4280C05
:100A6000922C9B180EC0B21460F4B60180E290E0A4
:100A70000E94A005B394F7CFB21418F42B1802C04B
:100A8000982C212CA4FE10C0B60180E390E00E94B7
:100A9000A005A2FE17C0A1FC03C088E790E002C039
:100AA00088E590E0B6010CC08A2D867859F0A1FE49
:100AB00002C08BE201C080E2A7FC8DE2B60190E0AB
:100AC0000E94A005891438F4B60180E390E00E94EA
:100AD000A0059A94F7CF8A94F301E80DF11D808167
:100AE000B60190E00E94A0058110F5CF222009F404
:100AF00042CEB60180E290E00E94A0052A94F6CF93
:100B0000F6018681978102C08FEF9FEF2B96E2E17D
:100B10000C945606FC010590615070400110D8F706
:100B2000809590958E0F9F1F0895FC016150704035
:100B300001900110D8F7809590958E0F9F1F089512
:100B40000F931F93CF93DF93FB01238121FD03C0FC
:100B50008FEF9FEF2CC022FF16C046815781248162
:100B600035814217530744F4A081B1819D012F5F65
:100B70003F4F318320838C93268137812F5F3F4FF6
:100B80003783268314C08B01EC01FB010084F185BF
:100B9000E02D0995892BE1F6D80116968D919C914F
:100BA0001797019617969C938E931697CE01DF9117
:100BB000CF911F910F910895FA01AA27283051F182
:100BC000203181F1E8946F936E7F6E5F7F4F8F4F7E
:100BD0009F4FAF4FB1E03ED0B4E03CD0670F781FDD
:100BE000891F9A1FA11D680F791F8A1F911DA11DC2
:100BF0006A0F711D811D911DA11D20D009F46894FB
:100C00003F912AE0269F11243019305D3193DEF6A2
:100C1000CF010895462F4770405D4193B3E00FD058
:100C2000C9F7F6CF462F4F70405D4A3318F0495D43
:100C300031FD4052419302D0A9F7EACFB4E0A69526
:100C40009795879577956795BA95C9F70097610548
:100C5000710508959B01AC010A2E0694579547959E
:100C600037952795BA95C9F7620F731F841F951F93
:100C7000A01D08952F923F924F925F926F927F92A4
:100C80008F929F92AF92BF92CF92DF92EF92FF929C
:100C90000F931F93CF93DF93CDB7DEB7CA1BDB0B48
:100CA0000FB6F894DEBF0FBECDBF09942A883988ED
:100CB00048885F846E847D848C849B84AA84B984F4
:100CC000C884DF80EE80FD800C811B81AA81B98100
:100CD000CE0FD11D0FB6F894DEBF0FBECDBFED0114
:060CE0000895F894FFCF17
:100CE600010A0D0050313A202564200D0A005032C9
:100CF6003A202564200D0A00506F72206661766FD7
:100D0600722C20696E677265736120756E206EFAAB
:100D16006D65726F2028302D323535293A20004313
:100D26006164656E612072656369626964613A2017
:100D36000056616C6F7220726563696269646F2028
:100D4600636F6D6F20656E7465726F3A2000566131
:100D56006C6F72206E6F2076E16C69646F2E205086
:100D66006F72206661766F722C20696E677265738A
:100D76006120756E206EFA6D65726F20656E7472F5
:100D86006520302079203235352E0A000A496E67F3
:100D96007265736520276D272070617261206F620E
:100DA60073657276617220656C204144432E0D0A8C
:100DB60000496E677265736520276E272070617221
:100DC6006120656C20636F6E7461646F722E0D0A0C
:100DD600000A456C20636F6D616E646F20696E67F3
:100DE60072657361646F206E6F2073652072656330
:0A0DF6006F6E6F63650A002575003B
:00000001FF
