:100000000C943B000C9458000C9458000C9458002D
:100010000C9458000C9458000C9458000C94580000
:100020000C9458000C9458000C9458000C945800F0
:100030000C9458000C9458000C9458000C945800E0
:100040000C9458000C9458000C9458000C945800D0
:100050000C9458000C94B6000C9458000C94580062
:100060000C9458000C945800400147014E0158016F
:1000700062016C01760111241FBECFEFD8E0DEBF14
:10008000CDBF11E0A0E0B1E0EEE2F3E002C00590E8
:100090000D92A230B107D9F721E0A2E0B1E001C092
:1000A0001D92A430B207E1F70E94F5000C9495016F
:1000B0000C940000ECE7F0E09081906490839081D4
:1000C0009F77908390819F7D9083EAE7F0E0908115
:1000D00098689083823021F48081816080830895C4
:1000E000843031F4EAE7F0E0808182608083089513
:1000F000883031F4EAE7F0E08081836080830895FE
:10010000803131F4EAE7F0E08081846080830895F3
:10011000803231F4EAE7F0E08081856080830895E1
:10012000803831F4EAE7F0E08081876080830895C9
:10013000EAE7F0E08081876080830895ECE7F0E0F3
:100140008081807F80838081816080830895ECE757
:10015000F0E08081807F8083808182608083089549
:10016000EAE7F0E080818064808308951F920F9217
:100170000FB60F9211242F933F934F935F936F937A
:100180007F938F939F93AF93BF93EF93FF93809150
:100190000001813061F48091780090917900809322
:1001A000020182E0809300010E94A7000BC08091B1
:1001B0007800909179008093030181E080930001A1
:1001C0000E949E000E94B000FF91EF91BF91AF91FD
:1001D0009F918F917F916F915F914F913F912F915F
:1001E0000F900FBE0F901F90189520E040E060E048
:1001F00080E40E94280180E80E945A000E94B0001A
:100200000E949E008CB580688CBD7894CEB5C336B4
:1002100071F48091020180930201809102010E9499
:100220008D018FE99FE00197F1F700C00000C4360F
:1002300069F78091030180930301809103010E947B
:100240008D018FE99FE00197F1F700C00000DECF3C
:10025000E82F84FF52C084B18C6284B984B18F7E50
:1002600084B98CB580618CBDE7708E2F90E08730AB
:10027000910508F04BC0FC01EC5CFF4F0C948F0122
:100280008CB58C7F8CBD8DB581608DBD3FC08CB52C
:100290008C7F8CBD8DB58E7F8DBD38C08CB5816057
:1002A0008CBD8CB58D7F8CBD8DB581608DBD2EC014
:1002B0008CB581608CBD8CB58D7F8CBD8DB58E7FEE
:1002C0008DBD24C08CB58E7F8CBD8CB582608CBDFD
:1002D0008DB581608DBD1AC08CB58E7F8CBD8CB5FF
:1002E00082608CBD8DB58E7F8DBD10C08CB5836056
:1002F0008CBD8DB58E7F8DBD09C084B1806184B900
:1003000084B1837D84B98CB58F7E8CBD8CB5462B32
:10031000242B282B20642CBD08958EBD0895EE0F4C
:0E032000FF1F0590F491E02D0994F894FFCF93
:02032E000100CC
:00000001FF
