:100000000C9434000C9451000C9451000C94510049
:100010000C9451000C9451000C9451000C9451001C
:100020000C9451000C9451000C9451000C9451000C
:100030000C9451000C9451000C9451000C945100FC
:100040000C9451000C9451000C9451000C945100EC
:100050000C9451000C9451000C9451000C945100DC
:100060000C9451000C94510011241FBECFEFD8E026
:10007000DEBFCDBF11E0A0E0B1E0E0EBF1E002C0F7
:1000800005900D92AA30B107D9F721E0AAE0B1E0BE
:1000900001C01D92AA30B207E1F70E94A9000C949A
:1000A000D6000C94000087B1806387B98AB18C6F49
:1000B0008AB988B18F7C88B98BB183708BB9089568
:1000C00080FF04C098B1906198B903C098B19F7E39
:1000D00098B981FF04C098B1906298B903C098B1F3
:1000E0009F7D98B982FF04C09BB194609BB903C007
:1000F0009BB19B7F9BB983FF04C09BB198609BB968
:1001000003C09BB1977F9BB984FF04C09BB19061F2
:100110009BB903C09BB19F7E9BB985FF04C09BB177
:1001200090629BB903C09BB19F7D9BB986FF04C0C1
:100130009BB190649BB903C09BB19F7B9BB9882303
:1001400024F48BB180688BB908958BB18F778BB90C
:100150000895CF93DF93CDB7DEB729970FB6F89404
:10016000DEBF0FBECDBF89E0E0E0F1E0DE01119619
:1001700001900D928A95E1F70E94530010E013C0A0
:10018000E1E0F0E0EC0FFD1FE10FF11D80810E9426
:1001900060002FEF83ED90E3215080409040E1F725
:1001A00000C000001F5F193058F3E8CFF894FFCF6C
:0A01B000000103070F1F3F7FFF004F
:00000001FF
