S02B0000636F6E7461646F7220656E20636F6E206E756D65726F7320656E206C6120636F6E736F6C612E7372FC
S11300000C9434000C9451000C9451000C94510045
S11300100C9451000C9451000C9451000C94510018
S11300200C9451000C9451000C9451000C94510008
S11300300C9451000C9451000C9451000C945100F8
S11300400C9451000C9451000C94A6010C94510092
S11300500C9451000C9451000C9451000C945100D8
S11300600C9451000C94510011241FBECFEFD8E022
S1130070DEBFCDBF11E0A0E0B1E0E8E1FAE002C0EC
S113008005900D92A839B107D9F722E0A8E9B1E0AB
S113009001C01D92A032B207E1F70E94A9000C949E
S11300A00A050C94000087B1806387B98AB18C6F0C
S11300B08AB988B18F7C88B98BB183708BB9089564
S11300C080FF04C098B1906198B903C098B19F7E35
S11300D098B981FF04C098B1906298B903C098B1EF
S11300E09F7D98B982FF04C09BB194609BB903C003
S11300F09BB19B7F9BB983FF04C09BB198609BB964
S113010003C09BB1977F9BB984FF04C09BB19061EE
S11301109BB903C09BB19F7E9BB985FF04C09BB173
S113012090629BB903C09BB19F7D9BB986FF04C0BD
S11301309BB190649BB903C09BB19F7B9BB98823FF
S113014024F48BB180688BB908958BB18F778BB908
S113015008950E94530080E895E20E94FB00789481
S11301608EE691E00E94290164E08CE192E00E9415
S11301707E018AE00E9422018DE00E94220180E03B
S113018091E00E9429018CE192E00E9429018AE019
S11301900E9422018CE192E00E94EC01909399016B
S11301A0809398018AE00E9422018DE00E9422013E
S11301B082E191E00E942901809198010E94360118
S11301C08AE00E9422018DE00E9422018091980120
S11301D0282F309199012F3F310509F018F40E941E
S11301E0600004C08FE291E00E9429018DE691E055
S11301F00E942901B9CFA0E0B0E0880F991FAA1F7F
S1130200BB1F880F991FAA1FBB1F9C01AD01220FA2
S1130210331F441F551F220F331F441F551F60E017
S113022074E284EF90E00E94CA01215031093093B6
S1130230C5002093C40088E98093C10086E08093C0
S1130240C20008959091C00095FFFCCF8093C60032
S11302500895CF93DF93EC0103C021960E942201FD
S113026088818111FACFDF91CF9108950F931F9365
S1130270CF93DF9300D000D0CDB7DEB71F928F931A
S113028085E991E09F938F931F9284E08F938E0171
S11302900F5F1F4F1F930F930E941202C8010E9409
S11302A029010FB6F894DEBF0FBECDBF0F900F909B
S11302B00F900F90DF91CF911F910F91089590911E
S11302C09B0180919A01981769F0E0919A01F0E0FE
S11302D0E456FE4F808190919A019F5F9F7790939F
S11302E09A01089580E0089520919B0190919A01CC
S11302F081E0291301C080E090E008950F931F93DB
S1130300CF93DF938C01D62FC0E00FC00E947401FD
S1130310892B59F00E945F018A3079F08D3069F0A1
S1130320F801EC0FF11D8083CF5F2C2F30E08D2F6F
S113033090E00197281739074CF3F801EC0FF11DF1
S11303401082DF91CF911F910F9108951F920F9208
S11303500FB60F9211248F93EF93FF93E0919B01BB
S1130360F0E08091C600E456FE4F808380919B01AB
S11303708F5F8F7780939B01E0919B01F0E0E456BF
S1130380FE4F1082FF91EF918F910F900FBE0F904F
S11303901F901895A1E21A2EAA1BBB1BFD010DC0CC
S11303A0AA1FBB1FEE1FFF1FA217B307E407F50721
S11303B020F0A21BB30BE40BF50B661F771F881FFD
S11303C0991F1A9469F760957095809590959B0193
S11303D0AC01BD01CF010895FC0188279927E89459
S11303E021912032E9F3293010F02E30C8F32B325A
S11303F041F02D3239F4689404C00E940A02820F3D
S1130400911D219120532A30C0F31EF490958195BB
S11304109F4F08957AE0979F902D879F802D910D8F
S113042011240895AEE0B0E0E8E1F2E00C94E104B8
S11304300D891E898F89988D26E02C831A83098360
S113044097FF02C080E090E801979E838D83AE0100
S1130450455E5F4F698D7A8DCE0101960E944202FE
S11304604D815E8157FD0AC02F813885421753079D
S11304700CF49A01F801E20FF31F10822E96E4E0C7
S11304800C94FD04ABE0B0E0E8E4F2E00C94D30497
S11304906C017B018A01FC0117821682838181FF32
S11304A0CCC1CE0101963C01F6019381F70193FD85
S11304B0859193FF81917F01882309F4BAC1853224
S11304C039F493FD859193FF81917F01853229F45D
S11304D0B60190E00E943904E7CF912C212C312CF5
S11304E0FFE1F315D8F08B3279F038F4803279F0EB
S11304F08332A1F4232D20611DC08D3261F080333D
S113050069F4232D216016C0832D8260382EE32DDB
S1130510E4603E2E2AC0F32DF8601DC037FC2DC0C8
S113052020ED280F2A3040F08E32B9F436FC81C118
S1130530232D2064322E19C036FE06C08AE0989E10
S1130540200D1124922E11C0EAE02E9E200D1124BC
S1130550222EF32DF0623F2E08C08C3621F4832D19
S11305608068382E02C0883641F4F70193FD8591E6
S113057093FF81917F018111B3CF982F9F7D955473
S1130580933028F40C5F1F4F9FE399830DC083368B
S113059031F0833771F0833509F059C021C0F80177
S11305A0808189830E5F1F4F88248394912C53018B
S11305B013C02801F2E04F0E511CF801A080B18055
S11305C036FE03C0692D70E002C06FEF7FEFC501F6
S11305D00E942E044C018201F32DFF773F2E16C09A
S11305E0280122E0420E511CF801A080B18036FEA1
S11305F003C0692D70E002C06FEF7FEFC5010E9458
S113060023044C01F32DF0683F2E820133FC1BC000
S1130610822D90E088169906B0F4B60180E290E04D
S11306200E9439042A94F4CFF50137FC859137FEF2
S113063081915F01B60190E00E94390421102A944F
S113064021E0821A91088114910471F7E8C084367C
S113065011F0893641F5F80137FE07C060817181D8
S1130660828193810C5F1F4F08C060817181072EC6
S1130670000C880B990B0E5F1F4FF32DFF763F2E56
S113068097FF09C090958095709561957F4F8F4F26
S11306909F4FF0683F2E2AE030E0A3010E947504CA
S11306A0882E861845C0853731F4232D2F7EB22E2F
S11306B02AE030E025C0932D997FB92E8F36C1F002
S11306C018F4883579F0B5C0803719F0883721F0EF
S11306D0B0C0E92FE061BE2EB4FE0DC0FB2DF46066
S11306E0BF2E09C034FE0AC0292F2660B22E06C0D0
S11306F028E030E005C020E130E002C020E132E033
S1130700F801B7FE07C060817181828193810C5F1B
S11307101F4F06C06081718180E090E00E5F1F4F23
S1130720A3010E947504882E8618FB2DFF773F2EA7
S113073036FE0DC0232D2E7FA22E891458F434FECC
S11307400BC032FC09C0832D8E7EA82E05C0B82CA8
S1130750A32C03C0B82C01C0B92CA4FE0FC0FE0109
S1130760E80DF11D8081803321F49A2D997EA92E04
S113077009C0A2FE06C0B394B39404C08A2D86783F
S113078009F0B394A3FC11C0A0FE06C0B21488F40F
S1130790280C922C9B180EC0B21460F4B60180E2AF
S11307A090E00E943904B394F7CFB21418F42B18D4
S11307B002C0982C212CA4FE10C0B60180E390E066
S11307C00E943904A2FE17C0A1FC03C088E790E090
S11307D002C088E590E0B6010CC08A2D867859F0F5
S11307E0A1FE02C08BE201C080E2A7FC8DE2B6014B
S11307F090E00E943904891438F4B60180E390E053
S11308000E9439049A94F7CF8A94F301E80DF11DFC
S11308108081B60190E00E9439048110F5CF222036
S113082009F442CEB60180E290E00E9439042A9491
S1130830F6CFF6018681978102C08FEF9FEF2B964A
S1130840E2E10C94EF04FC0105906150704001104A
S1130850D8F7809590958E0F9F1F0895FC016150E5
S1130860704001900110D8F7809590958E0F9F1FCE
S113087008950F931F93CF93DF93FB01238121FDF1
S113088003C08FEF9FEF2CC022FF16C04681578113
S1130890248135814217530744F4A081B1819D011D
S11308A02F5F3F4F318320838C93268137812F5FC5
S11308B03F4F3783268314C08B01EC01FB01008476
S11308C0F185E02D0995892BE1F6D80116968D91D5
S11308D09C911797019617969C938E931697CE0129
S11308E0DF91CF911F910F910895FA01AA27283023
S11308F051F1203181F1E8946F936E7F6E5F7F4FE9
S11309008F4F9F4FAF4FB1E03ED0B4E03CD0670F64
S1130910781F891F9A1FA11D680F791F8A1F911DB7
S1130920A11D6A0F711D811D911DA11D20D009F407
S113093068943F912AE0269F11243019305D319349
S1130940DEF6CF010895462F4770405D4193B3E032
S11309500FD0C9F7F6CF462F4F70405D4A3318F0D9
S1130960495D31FD4052419302D0A9F7EACFB4E08A
S1130970A6959795879577956795BA95C9F7009742
S11309806105710508959B01AC010A2E06945795E3
S1130990479537952795BA95C9F7620F731F841F3A
S11309A0951FA01D08952F923F924F925F926F92D0
S11309B07F928F929F92AF92BF92CF92DF92EF92EB
S11309C0FF920F931F93CF93DF93CDB7DEB7CA1B6C
S11309D0DB0B0FB6F894DEBF0FBECDBF09942A8897
S11309E0398848885F846E847D848C849B84AA843F
S11309F0B984C884DF80EE80FD800C811B81AA81CC
S1130A00B981CE0FD11D0FB6F894DEBF0FBECDBF96
S10B0A10ED010895F894FFCFF5
S1130A18436164656E612072656369626964613A01
S1130A28200056616C6F7220726563696269646F35
S1130A3820636F6D6F20656E7465726F3A2000567F
S1130A48616C6F72206E6F2076E16C69646F2E2082
S1130A58506F72206661766F722C20696E677265BA
S1130A68736120756E206EFA6D65726F20656E7401
S1130A78726520302079203235352E0A000A506FED
S1130A8872206661766F722C20696E677265736175
S1130A9820756E206EFA6D65726F2028302D323500
S10B0AA835293A2000257500F0
S9030000FC
